{
  "contractName": "Fund",
  "abi": [
    {
      "inputs": [
        {
          "internalType": "string",
          "name": "name",
          "type": "string"
        },
        {
          "internalType": "address",
          "name": "creator",
          "type": "address"
        }
      ],
      "stateMutability": "nonpayable",
      "type": "constructor"
    },
    {
      "inputs": [
        {
          "internalType": "address",
          "name": "",
          "type": "address"
        }
      ],
      "name": "donators",
      "outputs": [
        {
          "internalType": "bool",
          "name": "",
          "type": "bool"
        }
      ],
      "stateMutability": "view",
      "type": "function"
    },
    {
      "inputs": [],
      "name": "donatorsCount",
      "outputs": [
        {
          "internalType": "uint256",
          "name": "",
          "type": "uint256"
        }
      ],
      "stateMutability": "view",
      "type": "function"
    },
    {
      "inputs": [],
      "name": "manager",
      "outputs": [
        {
          "internalType": "address",
          "name": "",
          "type": "address"
        }
      ],
      "stateMutability": "view",
      "type": "function"
    },
    {
      "inputs": [],
      "name": "numRequests",
      "outputs": [
        {
          "internalType": "uint256",
          "name": "",
          "type": "uint256"
        }
      ],
      "stateMutability": "view",
      "type": "function"
    },
    {
      "inputs": [
        {
          "internalType": "uint256",
          "name": "",
          "type": "uint256"
        }
      ],
      "name": "requests",
      "outputs": [
        {
          "internalType": "string",
          "name": "description",
          "type": "string"
        },
        {
          "internalType": "uint256",
          "name": "value",
          "type": "uint256"
        },
        {
          "internalType": "address payable",
          "name": "recipient",
          "type": "address"
        },
        {
          "internalType": "bool",
          "name": "complete",
          "type": "bool"
        },
        {
          "internalType": "uint256",
          "name": "approvalCount",
          "type": "uint256"
        }
      ],
      "stateMutability": "view",
      "type": "function"
    },
    {
      "inputs": [],
      "name": "contribute",
      "outputs": [],
      "stateMutability": "payable",
      "type": "function"
    },
    {
      "inputs": [
        {
          "internalType": "string",
          "name": "description",
          "type": "string"
        },
        {
          "internalType": "uint256",
          "name": "value",
          "type": "uint256"
        },
        {
          "internalType": "address payable",
          "name": "recipient",
          "type": "address"
        }
      ],
      "name": "createRequest",
      "outputs": [],
      "stateMutability": "nonpayable",
      "type": "function"
    },
    {
      "inputs": [
        {
          "internalType": "uint256",
          "name": "index",
          "type": "uint256"
        }
      ],
      "name": "approveRequest",
      "outputs": [],
      "stateMutability": "nonpayable",
      "type": "function"
    },
    {
      "inputs": [],
      "name": "getSummary",
      "outputs": [
        {
          "internalType": "string",
          "name": "",
          "type": "string"
        },
        {
          "internalType": "uint256",
          "name": "",
          "type": "uint256"
        },
        {
          "internalType": "uint256",
          "name": "",
          "type": "uint256"
        },
        {
          "internalType": "uint256",
          "name": "",
          "type": "uint256"
        },
        {
          "internalType": "address",
          "name": "",
          "type": "address"
        }
      ],
      "stateMutability": "view",
      "type": "function"
    },
    {
      "inputs": [],
      "name": "getRequestsCount",
      "outputs": [
        {
          "internalType": "uint256",
          "name": "",
          "type": "uint256"
        }
      ],
      "stateMutability": "view",
      "type": "function"
    }
  ],
  "bytecode": "0x60806040523480156200001157600080fd5b50604051620015dd380380620015dd8339818101604052810190620000379190620001de565b80600360006101000a81548173ffffffffffffffffffffffffffffffffffffffff021916908373ffffffffffffffffffffffffffffffffffffffff16021790555081600090805190602001906200009092919062000099565b50505062000416565b828054620000a7906200030d565b90600052602060002090601f016020900481019282620000cb576000855562000117565b82601f10620000e657805160ff191683800117855562000117565b8280016001018555821562000117579182015b8281111562000116578251825591602001919060010190620000f9565b5b5090506200012691906200012a565b5090565b5b80821115620001455760008160009055506001016200012b565b5090565b6000620001606200015a846200026d565b62000244565b9050828152602081018484840111156200017f576200017e620003dc565b5b6200018c848285620002d7565b509392505050565b600081519050620001a581620003fc565b92915050565b600082601f830112620001c357620001c2620003d7565b5b8151620001d584826020860162000149565b91505092915050565b60008060408385031215620001f857620001f7620003e6565b5b600083015167ffffffffffffffff811115620002195762000218620003e1565b5b6200022785828601620001ab565b92505060206200023a8582860162000194565b9150509250929050565b60006200025062000263565b90506200025e828262000343565b919050565b6000604051905090565b600067ffffffffffffffff8211156200028b576200028a620003a8565b5b6200029682620003eb565b9050602081019050919050565b6000620002b082620002b7565b9050919050565b600073ffffffffffffffffffffffffffffffffffffffff82169050919050565b60005b83811015620002f7578082015181840152602081019050620002da565b8381111562000307576000848401525b50505050565b600060028204905060018216806200032657607f821691505b602082108114156200033d576200033c62000379565b5b50919050565b6200034e82620003eb565b810181811067ffffffffffffffff8211171562000370576200036f620003a8565b5b80604052505050565b7f4e487b7100000000000000000000000000000000000000000000000000000000600052602260045260246000fd5b7f4e487b7100000000000000000000000000000000000000000000000000000000600052604160045260246000fd5b600080fd5b600080fd5b600080fd5b600080fd5b6000601f19601f8301169050919050565b6200040781620002a3565b81146200041357600080fd5b50565b6111b780620004266000396000f3fe6080604052600436106100915760003560e01c80638a9cfd55116100595780638a9cfd55146101875780639fb42b1f146101b0578063d24f8cdd146101db578063d7bb99ba14610218578063d7d1bbdb1461022257610091565b80633410452a146100965780634051ddac146100c1578063481c6a75146100f057806372e871681461011b57806381d12c5814610146575b600080fd5b3480156100a257600080fd5b506100ab61024b565b6040516100b89190610d80565b60405180910390f35b3480156100cd57600080fd5b506100d6610255565b6040516100e7959493929190610cc6565b60405180910390f35b3480156100fc57600080fd5b50610105610326565b6040516101129190610c36565b60405180910390f35b34801561012757600080fd5b5061013061034c565b60405161013d9190610d80565b60405180910390f35b34801561015257600080fd5b5061016d60048036038101906101689190610b2b565b610352565b60405161017e959493929190610c6c565b60405180910390f35b34801561019357600080fd5b506101ae60048036038101906101a99190610abc565b61043d565b005b3480156101bc57600080fd5b506101c56105d3565b6040516101d29190610d80565b60405180910390f35b3480156101e757600080fd5b5061020260048036038101906101fd9190610a8f565b6105d9565b60405161020f9190610c51565b60405180910390f35b6102206105f9565b005b34801561022e57600080fd5b5061024960048036038101906102449190610b2b565b610700565b005b6000600154905090565b6060600080600080600047600154600554600360009054906101000a900473ffffffffffffffffffffffffffffffffffffffff1684805461029590610f34565b80601f01602080910402602001604051908101604052809291908181526020018280546102c190610f34565b801561030e5780601f106102e35761010080835404028352916020019161030e565b820191906000526020600020905b8154815290600101906020018083116102f157829003601f168201915b50505050509450945094509450945094509091929394565b600360009054906101000a900473ffffffffffffffffffffffffffffffffffffffff1681565b60055481565b600260205280600052604060002060009150905080600001805461037590610f34565b80601f01602080910402602001604051908101604052809291908181526020018280546103a190610f34565b80156103ee5780601f106103c3576101008083540402835291602001916103ee565b820191906000526020600020905b8154815290600101906020018083116103d157829003601f168201915b5050505050908060010154908060020160009054906101000a900473ffffffffffffffffffffffffffffffffffffffff16908060020160149054906101000a900460ff16908060030154905085565b600360009054906101000a900473ffffffffffffffffffffffffffffffffffffffff1673ffffffffffffffffffffffffffffffffffffffff163373ffffffffffffffffffffffffffffffffffffffff16146104cd576040517f08c379a00000000000000000000000000000000000000000000000000000000081526004016104c490610d40565b60405180910390fd5b47821115610510576040517f08c379a000000000000000000000000000000000000000000000000000000000815260040161050790610d20565b60405180910390fd5b600060026000600154815260200190815260200160002090508381600001908051906020019061054192919061093d565b50828160010181905550818160020160006101000a81548173ffffffffffffffffffffffffffffffffffffffff021916908373ffffffffffffffffffffffffffffffffffffffff16021790555060008160020160146101000a81548160ff02191690831515021790555060008160030181905550600160008154809291906105c890610f97565b919050555050505050565b60015481565b60046020528060005260406000206000915054906101000a900460ff1681565b6000341161063c576040517f08c379a000000000000000000000000000000000000000000000000000000000815260040161063390610d60565b60405180910390fd5b600460003373ffffffffffffffffffffffffffffffffffffffff1673ffffffffffffffffffffffffffffffffffffffff16815260200190815260200160002060009054906101000a900460ff166106fe576001600460003373ffffffffffffffffffffffffffffffffffffffff1673ffffffffffffffffffffffffffffffffffffffff16815260200190815260200160002060006101000a81548160ff021916908315150217905550600560008154809291906106f890610f97565b91905055505b565b6000600260008381526020019081526020016000209050600460003373ffffffffffffffffffffffffffffffffffffffff1673ffffffffffffffffffffffffffffffffffffffff16815260200190815260200160002060009054906101000a900460ff1661076d57600080fd5b8060040160003373ffffffffffffffffffffffffffffffffffffffff1673ffffffffffffffffffffffffffffffffffffffff16815260200190815260200160002060009054906101000a900460ff16156107c657600080fd5b60018160040160003373ffffffffffffffffffffffffffffffffffffffff1673ffffffffffffffffffffffffffffffffffffffff16815260200190815260200160002060006101000a81548160ff02191690831515021790555080600301600081548092919061083590610f97565b919050555061084382610847565b5050565b60006002600083815260200190815260200160002090506002600a60055461086f9190610e3e565b6108799190610e0d565b600a826003015461088a9190610e3e565b101580156108a757508060020160149054906101000a900460ff16155b15610939578060020160009054906101000a900473ffffffffffffffffffffffffffffffffffffffff1673ffffffffffffffffffffffffffffffffffffffff166108fc82600101549081150290604051600060405180830381858888f1935050505015801561091a573d6000803e3d6000fd5b5060018160020160146101000a81548160ff0219169083151502179055505b5050565b82805461094990610f34565b90600052602060002090601f01602090048101928261096b57600085556109b2565b82601f1061098457805160ff19168380011785556109b2565b828001600101855582156109b2579182015b828111156109b1578251825591602001919060010190610996565b5b5090506109bf91906109c3565b5090565b5b808211156109dc5760008160009055506001016109c4565b5090565b60006109f36109ee84610dc0565b610d9b565b905082815260208101848484011115610a0f57610a0e6110a1565b5b610a1a848285610ef2565b509392505050565b600081359050610a318161113c565b92915050565b600081359050610a4681611153565b92915050565b600082601f830112610a6157610a6061109c565b5b8135610a718482602086016109e0565b91505092915050565b600081359050610a898161116a565b92915050565b600060208284031215610aa557610aa46110ab565b5b6000610ab384828501610a22565b91505092915050565b600080600060608486031215610ad557610ad46110ab565b5b600084013567ffffffffffffffff811115610af357610af26110a6565b5b610aff86828701610a4c565b9350506020610b1086828701610a7a565b9250506040610b2186828701610a37565b9150509250925092565b600060208284031215610b4157610b406110ab565b5b6000610b4f84828501610a7a565b91505092915050565b610b6181610eaa565b82525050565b610b7081610e98565b82525050565b610b7f81610ebc565b82525050565b6000610b9082610df1565b610b9a8185610dfc565b9350610baa818560208601610f01565b610bb3816110b0565b840191505092915050565b6000610bcb601683610dfc565b9150610bd6826110c1565b602082019050919050565b6000610bee601e83610dfc565b9150610bf9826110ea565b602082019050919050565b6000610c11600e83610dfc565b9150610c1c82611113565b602082019050919050565b610c3081610ee8565b82525050565b6000602082019050610c4b6000830184610b67565b92915050565b6000602082019050610c666000830184610b76565b92915050565b600060a0820190508181036000830152610c868188610b85565b9050610c956020830187610c27565b610ca26040830186610b58565b610caf6060830185610b76565b610cbc6080830184610c27565b9695505050505050565b600060a0820190508181036000830152610ce08188610b85565b9050610cef6020830187610c27565b610cfc6040830186610c27565b610d096060830185610c27565b610d166080830184610b67565b9695505050505050565b60006020820190508181036000830152610d3981610bbe565b9050919050565b60006020820190508181036000830152610d5981610be1565b9050919050565b60006020820190508181036000830152610d7981610c04565b9050919050565b6000602082019050610d956000830184610c27565b92915050565b6000610da5610db6565b9050610db18282610f66565b919050565b6000604051905090565b600067ffffffffffffffff821115610ddb57610dda61106d565b5b610de4826110b0565b9050602081019050919050565b600081519050919050565b600082825260208201905092915050565b6000610e1882610ee8565b9150610e2383610ee8565b925082610e3357610e3261100f565b5b828204905092915050565b6000610e4982610ee8565b9150610e5483610ee8565b9250817fffffffffffffffffffffffffffffffffffffffffffffffffffffffffffffffff0483118215151615610e8d57610e8c610fe0565b5b828202905092915050565b6000610ea382610ec8565b9050919050565b6000610eb582610ec8565b9050919050565b60008115159050919050565b600073ffffffffffffffffffffffffffffffffffffffff82169050919050565b6000819050919050565b82818337600083830152505050565b60005b83811015610f1f578082015181840152602081019050610f04565b83811115610f2e576000848401525b50505050565b60006002820490506001821680610f4c57607f821691505b60208210811415610f6057610f5f61103e565b5b50919050565b610f6f826110b0565b810181811067ffffffffffffffff82111715610f8e57610f8d61106d565b5b80604052505050565b6000610fa282610ee8565b91507fffffffffffffffffffffffffffffffffffffffffffffffffffffffffffffffff821415610fd557610fd4610fe0565b5b600182019050919050565b7f4e487b7100000000000000000000000000000000000000000000000000000000600052601160045260246000fd5b7f4e487b7100000000000000000000000000000000000000000000000000000000600052601260045260246000fd5b7f4e487b7100000000000000000000000000000000000000000000000000000000600052602260045260246000fd5b7f4e487b7100000000000000000000000000000000000000000000000000000000600052604160045260246000fd5b600080fd5b600080fd5b600080fd5b600080fd5b6000601f19601f8301169050919050565b7f4e6f7420656e6f756768206d6f6e6579206c6566742100000000000000000000600082015250565b7f4f6e6c79204f776e65722063616e206372656174652072657175657374210000600082015250565b7f4e6f2076616c75652073656e7421000000000000000000000000000000000000600082015250565b61114581610e98565b811461115057600080fd5b50565b61115c81610eaa565b811461116757600080fd5b50565b61117381610ee8565b811461117e57600080fd5b5056fea264697066735822122063ba715b030c86aa021b3863dd5dce2026b93af2c5d274e5a9844a02190c9a8e64736f6c63430008070033",
  "immutableReferences": {},
  "source": "pragma solidity >=0.7.0 <0.9.0;\n\n//Default value wei\ncontract Fund {\n    string fundName;\n    struct Request {\n        string description;\n        uint value;\n        address payable recipient;\n        bool complete;\n        uint approvalCount;\n        mapping(address => bool) approvals;\n    }\n\n    uint public numRequests;\n    mapping(uint => Request) public requests;\n\n    address public manager;\n\n    mapping(address => bool) public donators;\n    uint public donatorsCount;\n\n    modifier restricted() {\n        require(msg.sender == manager, \"Only Owner can create request!\");\n        _;\n    }\n\n    constructor(string memory name, address creator)  {\n        manager = creator;\n        fundName = name;\n\n    }\n\n    function contribute() public payable {\n        require(msg.value > 0, \"No value sent!\");\n\n        //multiple donation from same donator only count once, value automatically added\n        if (!donators[msg.sender]) {\n            donators[msg.sender] = true;\n            donatorsCount++;\n        }\n//        donators[msg.sender] = true;\n//        donatorsCount++;\n    }\n\n    function createRequest(string memory description, uint value, address payable recipient) public restricted {\n        require(value <= address(this).balance, \"Not enough money left!\");\n        Request storage r = requests[numRequests];\n        r.description = description;\n        r.value = value;\n        r.recipient = recipient;\n        r.complete = false;\n        r.approvalCount = 0;\n        numRequests++;\n    }\n\n    function approveRequest(uint index) public {\n        Request storage request = requests[index];\n\n        require(donators[msg.sender]);\n        require(!request.approvals[msg.sender]);\n\n        request.approvals[msg.sender] = true;\n        request.approvalCount++;\n\n        finalizeRequest(index);\n    }\n\n    function finalizeRequest(uint index) internal {\n        Request storage request = requests[index];\n\n        //Decimal not supported, that is why times 10\n        if (request.approvalCount*10 >= (donatorsCount*10 / 2) && !request.complete) {\n            request.recipient.transfer(request.value);\n            request.complete = true;\n        }\n    }\n\n    function getSummary() public view returns(\n        string memory, uint, uint, uint, address\n    ) {\n        return (\n        fundName,\n        address(this).balance,\n        numRequests,\n        donatorsCount,\n        manager\n        );\n    }\n\n    function getRequestsCount() public view returns (uint) {\n        return numRequests;\n    }\n}\n",
  "sourcePath": "/Users/fanglimin/blockchain/fund/contracts/Fund.sol",
  "compiler": {
    "name": "solc",
    "version": "0.8.7+commit.e28d00a7.Emscripten.clang"
  },
  "schemaVersion": "3.4.2",
  "updatedAt": "2021-11-26T02:44:31.348Z",
  "devdoc": {
    "kind": "dev",
    "methods": {},
    "version": 1
  },
  "userdoc": {
    "kind": "user",
    "methods": {},
    "version": 1
  }
}