{
  "contractName": "FundFactory",
  "abi": [
    {
      "inputs": [],
      "stateMutability": "nonpayable",
      "type": "constructor"
    },
    {
      "inputs": [],
      "name": "charityOwner",
      "outputs": [
        {
          "internalType": "address",
          "name": "",
          "type": "address"
        }
      ],
      "stateMutability": "view",
      "type": "function",
      "constant": true
    },
    {
      "inputs": [
        {
          "internalType": "uint256",
          "name": "",
          "type": "uint256"
        }
      ],
      "name": "deployedFunds",
      "outputs": [
        {
          "internalType": "address",
          "name": "",
          "type": "address"
        }
      ],
      "stateMutability": "view",
      "type": "function",
      "constant": true
    },
    {
      "inputs": [
        {
          "internalType": "uint256",
          "name": "",
          "type": "uint256"
        }
      ],
      "name": "fundRefs",
      "outputs": [
        {
          "internalType": "contract Fund",
          "name": "",
          "type": "address"
        }
      ],
      "stateMutability": "view",
      "type": "function",
      "constant": true
    },
    {
      "inputs": [
        {
          "internalType": "string",
          "name": "name",
          "type": "string"
        }
      ],
      "name": "raiseFund",
      "outputs": [],
      "stateMutability": "nonpayable",
      "type": "function"
    },
    {
      "inputs": [],
      "name": "getFunds",
      "outputs": [
        {
          "internalType": "address[]",
          "name": "",
          "type": "address[]"
        }
      ],
      "stateMutability": "view",
      "type": "function",
      "constant": true
    },
    {
      "inputs": [],
      "name": "getFundBalances",
      "outputs": [
        {
          "components": [
            {
              "internalType": "string",
              "name": "fundName",
              "type": "string"
            },
            {
              "internalType": "uint256",
              "name": "balance",
              "type": "uint256"
            }
          ],
          "internalType": "struct FundFactory.FundBalance[]",
          "name": "",
          "type": "tuple[]"
        }
      ],
      "stateMutability": "view",
      "type": "function",
      "constant": true
    }
  ],
  "bytecode": "0x608060405234801561001057600080fd5b5033600260006101000a81548173ffffffffffffffffffffffffffffffffffffffff021916908373ffffffffffffffffffffffffffffffffffffffff1602179055506123eb806100616000396000f3fe60806040523480156200001157600080fd5b50600436106200006a5760003560e01c806308b7619b146200006f57806310b6f3be146200008f5780634d9b373514620000b15780636ecc75af14620000d35780639a068bd614620000f5578063bacd69af146200012b575b600080fd5b6200008d6004803603810190620000879190620006af565b62000161565b005b620000996200026a565b604051620000a8919062000a3c565b60405180910390f35b620000bb62000410565b604051620000ca919062000a18565b60405180910390f35b620000dd620004a0565b604051620000ec9190620009fb565b60405180910390f35b6200011360048036038101906200010d9190620007a7565b620004c6565b604051620001229190620009fb565b60405180910390f35b620001496004803603810190620001439190620007a7565b62000506565b60405162000158919062000a60565b60405180910390f35b60008133604051620001739062000546565b6200018092919062000a7d565b604051809103906000f0801580156200019d573d6000803e3d6000fd5b5090506000819080600181540180825580915050600190039060005260206000200160009091909190916101000a81548173ffffffffffffffffffffffffffffffffffffffff021916908373ffffffffffffffffffffffffffffffffffffffff1602179055506001819080600181540180825580915050600190039060005260206000200160009091909190916101000a81548173ffffffffffffffffffffffffffffffffffffffff021916908373ffffffffffffffffffffffffffffffffffffffff1602179055505050565b60606000600180549050905060008167ffffffffffffffff81111562000295576200029462000d50565b5b604051908082528060200260200182016040528015620002d257816020015b620002be62000554565b815260200190600190039081620002b45790505b50905060005b82811015620004075760008060018381548110620002fb57620002fa62000d21565b5b9060005260206000200160009054906101000a900473ffffffffffffffffffffffffffffffffffffffff1673ffffffffffffffffffffffffffffffffffffffff16634051ddac6040518163ffffffff1660e01b815260040160006040518083038186803b1580156200036c57600080fd5b505afa15801562000381573d6000803e3d6000fd5b505050506040513d6000823e3d601f19601f82011682018060405250810190620003ac919062000700565b505050915091506000604051806040016040528084815260200183815250905080858581518110620003e357620003e262000d21565b5b60200260200101819052505050508080620003fe9062000ca4565b915050620002d8565b50809250505090565b606060008054806020026020016040519081016040528092919081815260200182805480156200049657602002820191906000526020600020905b8160009054906101000a900473ffffffffffffffffffffffffffffffffffffffff1673ffffffffffffffffffffffffffffffffffffffff16815260200190600101908083116200044b575b5050505050905090565b600260009054906101000a900473ffffffffffffffffffffffffffffffffffffffff1681565b60008181548110620004d757600080fd5b906000526020600020016000915054906101000a900473ffffffffffffffffffffffffffffffffffffffff1681565b600181815481106200051757600080fd5b906000526020600020016000915054906101000a900473ffffffffffffffffffffffffffffffffffffffff1681565b6115dd8062000dd983390190565b604051806040016040528060608152602001600081525090565b6000620005856200057f8462000ada565b62000ab1565b905082815260208101848484011115620005a457620005a362000d84565b5b620005b184828562000c29565b509392505050565b6000620005d0620005ca8462000ada565b62000ab1565b905082815260208101848484011115620005ef57620005ee62000d84565b5b620005fc84828562000c38565b509392505050565b600081519050620006158162000da4565b92915050565b600082601f83011262000633576200063262000d7f565b5b8135620006458482602086016200056e565b91505092915050565b600082601f83011262000666576200066562000d7f565b5b815162000678848260208601620005b9565b91505092915050565b600081359050620006928162000dbe565b92915050565b600081519050620006a98162000dbe565b92915050565b600060208284031215620006c857620006c762000d8e565b5b600082013567ffffffffffffffff811115620006e957620006e862000d89565b5b620006f7848285016200061b565b91505092915050565b600080600080600060a086880312156200071f576200071e62000d8e565b5b600086015167ffffffffffffffff81111562000740576200073f62000d89565b5b6200074e888289016200064e565b9550506020620007618882890162000698565b9450506040620007748882890162000698565b9350506060620007878882890162000698565b92505060806200079a8882890162000604565b9150509295509295909350565b600060208284031215620007c057620007bf62000d8e565b5b6000620007d08482850162000681565b91505092915050565b6000620007e7838362000809565b60208301905092915050565b6000620008018383620009a9565b905092915050565b620008148162000baf565b82525050565b620008258162000baf565b82525050565b6000620008388262000b30565b62000844818562000b6b565b9350620008518362000b10565b8060005b83811015620008885781516200086c8882620007d9565b9750620008798362000b51565b92505060018101905062000855565b5085935050505092915050565b6000620008a28262000b3b565b620008ae818562000b7c565b935083602082028501620008c28562000b20565b8060005b85811015620009045784840389528151620008e28582620007f3565b9450620008ef8362000b5e565b925060208a01995050600181019050620008c6565b50829750879550505050505092915050565b620009218162000bed565b82525050565b6000620009348262000b46565b62000940818562000b8d565b93506200095281856020860162000c38565b6200095d8162000d93565b840191505092915050565b6000620009758262000b46565b62000981818562000b9e565b93506200099381856020860162000c38565b6200099e8162000d93565b840191505092915050565b60006040830160008301518482036000860152620009c8828262000927565b9150506020830151620009df6020860182620009ea565b508091505092915050565b620009f58162000be3565b82525050565b600060208201905062000a1260008301846200081a565b92915050565b6000602082019050818103600083015262000a3481846200082b565b905092915050565b6000602082019050818103600083015262000a58818462000895565b905092915050565b600060208201905062000a77600083018462000916565b92915050565b6000604082019050818103600083015262000a99818562000968565b905062000aaa60208301846200081a565b9392505050565b600062000abd62000ad0565b905062000acb828262000c6e565b919050565b6000604051905090565b600067ffffffffffffffff82111562000af85762000af762000d50565b5b62000b038262000d93565b9050602081019050919050565b6000819050602082019050919050565b6000819050602082019050919050565b600081519050919050565b600081519050919050565b600081519050919050565b6000602082019050919050565b6000602082019050919050565b600082825260208201905092915050565b600082825260208201905092915050565b600082825260208201905092915050565b600082825260208201905092915050565b600062000bbc8262000bc3565b9050919050565b600073ffffffffffffffffffffffffffffffffffffffff82169050919050565b6000819050919050565b600062000bfa8262000c01565b9050919050565b600062000c0e8262000c15565b9050919050565b600062000c228262000bc3565b9050919050565b82818337600083830152505050565b60005b8381101562000c5857808201518184015260208101905062000c3b565b8381111562000c68576000848401525b50505050565b62000c798262000d93565b810181811067ffffffffffffffff8211171562000c9b5762000c9a62000d50565b5b80604052505050565b600062000cb18262000be3565b91507fffffffffffffffffffffffffffffffffffffffffffffffffffffffffffffffff82141562000ce75762000ce662000cf2565b5b600182019050919050565b7f4e487b7100000000000000000000000000000000000000000000000000000000600052601160045260246000fd5b7f4e487b7100000000000000000000000000000000000000000000000000000000600052603260045260246000fd5b7f4e487b7100000000000000000000000000000000000000000000000000000000600052604160045260246000fd5b600080fd5b600080fd5b600080fd5b600080fd5b6000601f19601f8301169050919050565b62000daf8162000baf565b811462000dbb57600080fd5b50565b62000dc98162000be3565b811462000dd557600080fd5b5056fe60806040523480156200001157600080fd5b50604051620015dd380380620015dd8339818101604052810190620000379190620001de565b80600360006101000a81548173ffffffffffffffffffffffffffffffffffffffff021916908373ffffffffffffffffffffffffffffffffffffffff16021790555081600090805190602001906200009092919062000099565b50505062000416565b828054620000a7906200030d565b90600052602060002090601f016020900481019282620000cb576000855562000117565b82601f10620000e657805160ff191683800117855562000117565b8280016001018555821562000117579182015b8281111562000116578251825591602001919060010190620000f9565b5b5090506200012691906200012a565b5090565b5b80821115620001455760008160009055506001016200012b565b5090565b6000620001606200015a846200026d565b62000244565b9050828152602081018484840111156200017f576200017e620003dc565b5b6200018c848285620002d7565b509392505050565b600081519050620001a581620003fc565b92915050565b600082601f830112620001c357620001c2620003d7565b5b8151620001d584826020860162000149565b91505092915050565b60008060408385031215620001f857620001f7620003e6565b5b600083015167ffffffffffffffff811115620002195762000218620003e1565b5b6200022785828601620001ab565b92505060206200023a8582860162000194565b9150509250929050565b60006200025062000263565b90506200025e828262000343565b919050565b6000604051905090565b600067ffffffffffffffff8211156200028b576200028a620003a8565b5b6200029682620003eb565b9050602081019050919050565b6000620002b082620002b7565b9050919050565b600073ffffffffffffffffffffffffffffffffffffffff82169050919050565b60005b83811015620002f7578082015181840152602081019050620002da565b8381111562000307576000848401525b50505050565b600060028204905060018216806200032657607f821691505b602082108114156200033d576200033c62000379565b5b50919050565b6200034e82620003eb565b810181811067ffffffffffffffff8211171562000370576200036f620003a8565b5b80604052505050565b7f4e487b7100000000000000000000000000000000000000000000000000000000600052602260045260246000fd5b7f4e487b7100000000000000000000000000000000000000000000000000000000600052604160045260246000fd5b600080fd5b600080fd5b600080fd5b600080fd5b6000601f19601f8301169050919050565b6200040781620002a3565b81146200041357600080fd5b50565b6111b780620004266000396000f3fe6080604052600436106100915760003560e01c80638a9cfd55116100595780638a9cfd55146101875780639fb42b1f146101b0578063d24f8cdd146101db578063d7bb99ba14610218578063d7d1bbdb1461022257610091565b80633410452a146100965780634051ddac146100c1578063481c6a75146100f057806372e871681461011b57806381d12c5814610146575b600080fd5b3480156100a257600080fd5b506100ab61024b565b6040516100b89190610d80565b60405180910390f35b3480156100cd57600080fd5b506100d6610255565b6040516100e7959493929190610cc6565b60405180910390f35b3480156100fc57600080fd5b50610105610326565b6040516101129190610c36565b60405180910390f35b34801561012757600080fd5b5061013061034c565b60405161013d9190610d80565b60405180910390f35b34801561015257600080fd5b5061016d60048036038101906101689190610b2b565b610352565b60405161017e959493929190610c6c565b60405180910390f35b34801561019357600080fd5b506101ae60048036038101906101a99190610abc565b61043d565b005b3480156101bc57600080fd5b506101c56105d3565b6040516101d29190610d80565b60405180910390f35b3480156101e757600080fd5b5061020260048036038101906101fd9190610a8f565b6105d9565b60405161020f9190610c51565b60405180910390f35b6102206105f9565b005b34801561022e57600080fd5b5061024960048036038101906102449190610b2b565b610700565b005b6000600154905090565b6060600080600080600047600154600554600360009054906101000a900473ffffffffffffffffffffffffffffffffffffffff1684805461029590610f34565b80601f01602080910402602001604051908101604052809291908181526020018280546102c190610f34565b801561030e5780601f106102e35761010080835404028352916020019161030e565b820191906000526020600020905b8154815290600101906020018083116102f157829003601f168201915b50505050509450945094509450945094509091929394565b600360009054906101000a900473ffffffffffffffffffffffffffffffffffffffff1681565b60055481565b600260205280600052604060002060009150905080600001805461037590610f34565b80601f01602080910402602001604051908101604052809291908181526020018280546103a190610f34565b80156103ee5780601f106103c3576101008083540402835291602001916103ee565b820191906000526020600020905b8154815290600101906020018083116103d157829003601f168201915b5050505050908060010154908060020160009054906101000a900473ffffffffffffffffffffffffffffffffffffffff16908060020160149054906101000a900460ff16908060030154905085565b600360009054906101000a900473ffffffffffffffffffffffffffffffffffffffff1673ffffffffffffffffffffffffffffffffffffffff163373ffffffffffffffffffffffffffffffffffffffff16146104cd576040517f08c379a00000000000000000000000000000000000000000000000000000000081526004016104c490610d40565b60405180910390fd5b47821115610510576040517f08c379a000000000000000000000000000000000000000000000000000000000815260040161050790610d20565b60405180910390fd5b600060026000600154815260200190815260200160002090508381600001908051906020019061054192919061093d565b50828160010181905550818160020160006101000a81548173ffffffffffffffffffffffffffffffffffffffff021916908373ffffffffffffffffffffffffffffffffffffffff16021790555060008160020160146101000a81548160ff02191690831515021790555060008160030181905550600160008154809291906105c890610f97565b919050555050505050565b60015481565b60046020528060005260406000206000915054906101000a900460ff1681565b6000341161063c576040517f08c379a000000000000000000000000000000000000000000000000000000000815260040161063390610d60565b60405180910390fd5b600460003373ffffffffffffffffffffffffffffffffffffffff1673ffffffffffffffffffffffffffffffffffffffff16815260200190815260200160002060009054906101000a900460ff166106fe576001600460003373ffffffffffffffffffffffffffffffffffffffff1673ffffffffffffffffffffffffffffffffffffffff16815260200190815260200160002060006101000a81548160ff021916908315150217905550600560008154809291906106f890610f97565b91905055505b565b6000600260008381526020019081526020016000209050600460003373ffffffffffffffffffffffffffffffffffffffff1673ffffffffffffffffffffffffffffffffffffffff16815260200190815260200160002060009054906101000a900460ff1661076d57600080fd5b8060040160003373ffffffffffffffffffffffffffffffffffffffff1673ffffffffffffffffffffffffffffffffffffffff16815260200190815260200160002060009054906101000a900460ff16156107c657600080fd5b60018160040160003373ffffffffffffffffffffffffffffffffffffffff1673ffffffffffffffffffffffffffffffffffffffff16815260200190815260200160002060006101000a81548160ff02191690831515021790555080600301600081548092919061083590610f97565b919050555061084382610847565b5050565b60006002600083815260200190815260200160002090506002600a60055461086f9190610e3e565b6108799190610e0d565b600a826003015461088a9190610e3e565b101580156108a757508060020160149054906101000a900460ff16155b15610939578060020160009054906101000a900473ffffffffffffffffffffffffffffffffffffffff1673ffffffffffffffffffffffffffffffffffffffff166108fc82600101549081150290604051600060405180830381858888f1935050505015801561091a573d6000803e3d6000fd5b5060018160020160146101000a81548160ff0219169083151502179055505b5050565b82805461094990610f34565b90600052602060002090601f01602090048101928261096b57600085556109b2565b82601f1061098457805160ff19168380011785556109b2565b828001600101855582156109b2579182015b828111156109b1578251825591602001919060010190610996565b5b5090506109bf91906109c3565b5090565b5b808211156109dc5760008160009055506001016109c4565b5090565b60006109f36109ee84610dc0565b610d9b565b905082815260208101848484011115610a0f57610a0e6110a1565b5b610a1a848285610ef2565b509392505050565b600081359050610a318161113c565b92915050565b600081359050610a4681611153565b92915050565b600082601f830112610a6157610a6061109c565b5b8135610a718482602086016109e0565b91505092915050565b600081359050610a898161116a565b92915050565b600060208284031215610aa557610aa46110ab565b5b6000610ab384828501610a22565b91505092915050565b600080600060608486031215610ad557610ad46110ab565b5b600084013567ffffffffffffffff811115610af357610af26110a6565b5b610aff86828701610a4c565b9350506020610b1086828701610a7a565b9250506040610b2186828701610a37565b9150509250925092565b600060208284031215610b4157610b406110ab565b5b6000610b4f84828501610a7a565b91505092915050565b610b6181610eaa565b82525050565b610b7081610e98565b82525050565b610b7f81610ebc565b82525050565b6000610b9082610df1565b610b9a8185610dfc565b9350610baa818560208601610f01565b610bb3816110b0565b840191505092915050565b6000610bcb601683610dfc565b9150610bd6826110c1565b602082019050919050565b6000610bee601e83610dfc565b9150610bf9826110ea565b602082019050919050565b6000610c11600e83610dfc565b9150610c1c82611113565b602082019050919050565b610c3081610ee8565b82525050565b6000602082019050610c4b6000830184610b67565b92915050565b6000602082019050610c666000830184610b76565b92915050565b600060a0820190508181036000830152610c868188610b85565b9050610c956020830187610c27565b610ca26040830186610b58565b610caf6060830185610b76565b610cbc6080830184610c27565b9695505050505050565b600060a0820190508181036000830152610ce08188610b85565b9050610cef6020830187610c27565b610cfc6040830186610c27565b610d096060830185610c27565b610d166080830184610b67565b9695505050505050565b60006020820190508181036000830152610d3981610bbe565b9050919050565b60006020820190508181036000830152610d5981610be1565b9050919050565b60006020820190508181036000830152610d7981610c04565b9050919050565b6000602082019050610d956000830184610c27565b92915050565b6000610da5610db6565b9050610db18282610f66565b919050565b6000604051905090565b600067ffffffffffffffff821115610ddb57610dda61106d565b5b610de4826110b0565b9050602081019050919050565b600081519050919050565b600082825260208201905092915050565b6000610e1882610ee8565b9150610e2383610ee8565b925082610e3357610e3261100f565b5b828204905092915050565b6000610e4982610ee8565b9150610e5483610ee8565b9250817fffffffffffffffffffffffffffffffffffffffffffffffffffffffffffffffff0483118215151615610e8d57610e8c610fe0565b5b828202905092915050565b6000610ea382610ec8565b9050919050565b6000610eb582610ec8565b9050919050565b60008115159050919050565b600073ffffffffffffffffffffffffffffffffffffffff82169050919050565b6000819050919050565b82818337600083830152505050565b60005b83811015610f1f578082015181840152602081019050610f04565b83811115610f2e576000848401525b50505050565b60006002820490506001821680610f4c57607f821691505b60208210811415610f6057610f5f61103e565b5b50919050565b610f6f826110b0565b810181811067ffffffffffffffff82111715610f8e57610f8d61106d565b5b80604052505050565b6000610fa282610ee8565b91507fffffffffffffffffffffffffffffffffffffffffffffffffffffffffffffffff821415610fd557610fd4610fe0565b5b600182019050919050565b7f4e487b7100000000000000000000000000000000000000000000000000000000600052601160045260246000fd5b7f4e487b7100000000000000000000000000000000000000000000000000000000600052601260045260246000fd5b7f4e487b7100000000000000000000000000000000000000000000000000000000600052602260045260246000fd5b7f4e487b7100000000000000000000000000000000000000000000000000000000600052604160045260246000fd5b600080fd5b600080fd5b600080fd5b600080fd5b6000601f19601f8301169050919050565b7f4e6f7420656e6f756768206d6f6e6579206c6566742100000000000000000000600082015250565b7f4f6e6c79204f776e65722063616e206372656174652072657175657374210000600082015250565b7f4e6f2076616c75652073656e7421000000000000000000000000000000000000600082015250565b61114581610e98565b811461115057600080fd5b50565b61115c81610eaa565b811461116757600080fd5b50565b61117381610ee8565b811461117e57600080fd5b5056fea264697066735822122063ba715b030c86aa021b3863dd5dce2026b93af2c5d274e5a9844a02190c9a8e64736f6c63430008070033a2646970667358221220570cc139a1d7bc5fee42ac7e7e66145e6c4548809c129014ed5f8c81605acab864736f6c63430008070033",
  "immutableReferences": {},
  "source": "pragma solidity >=0.7.0 <0.9.0;\n\nimport './Fund.sol';\n\ncontract FundFactory {\n    address[] public deployedFunds;\n    //added\n    Fund[] public fundRefs;\n    struct FundBalance {\n        string fundName;\n        uint balance;\n    }\n\n    address public charityOwner;\n\n    constructor()  {\n        charityOwner = msg.sender;\n    }\n\n    function raiseFund(string memory name) public {\n        Fund newFund = new Fund(name, msg.sender);\n        deployedFunds.push(address(newFund));\n        //added\n        fundRefs.push(newFund);\n    }\n\n    function getFunds() public view returns (address[] memory) {\n        return deployedFunds;\n    }\n\n    function getFundBalances() public view returns (FundBalance[] memory) {\n        uint len = fundRefs.length;\n        FundBalance[] memory fbs = new FundBalance[](len);\n        for (uint i=0; i<len; i++) {\n            (string memory fundName,uint balance,,,) = fundRefs[i].getSummary(); //Summary is tuple from Fund contract, first 2 fields are name and balance\n            FundBalance memory fb = FundBalance(fundName, balance);\n            fbs[i] = fb;\n        }\n        return fbs;\n    }\n}\n",
  "sourcePath": "/Users/fanglimin/blockchain/fund/contracts/FundFactory.sol",
  "compiler": {
    "name": "solc",
    "version": "0.8.7+commit.e28d00a7.Emscripten.clang"
  },
  "schemaVersion": "3.4.2",
  "updatedAt": "2021-11-26T06:10:39.414Z",
  "networkType": "ethereum",
  "devdoc": {
    "kind": "dev",
    "methods": {},
    "version": 1
  },
  "userdoc": {
    "kind": "user",
    "methods": {},
    "version": 1
  }
}