{
  "contractName": "FundFactory",
  "abi": [
    {
      "inputs": [],
      "stateMutability": "nonpayable",
      "type": "constructor"
    },
    {
      "inputs": [],
      "name": "charityOwner",
      "outputs": [
        {
          "internalType": "address",
          "name": "",
          "type": "address"
        }
      ],
      "stateMutability": "view",
      "type": "function",
      "constant": true
    },
    {
      "inputs": [
        {
          "internalType": "uint256",
          "name": "",
          "type": "uint256"
        }
      ],
      "name": "deployedFunds",
      "outputs": [
        {
          "internalType": "address",
          "name": "",
          "type": "address"
        }
      ],
      "stateMutability": "view",
      "type": "function",
      "constant": true
    },
    {
      "inputs": [
        {
          "internalType": "string",
          "name": "name",
          "type": "string"
        }
      ],
      "name": "raiseFund",
      "outputs": [],
      "stateMutability": "nonpayable",
      "type": "function"
    },
    {
      "inputs": [],
      "name": "getFunds",
      "outputs": [
        {
          "internalType": "address[]",
          "name": "",
          "type": "address[]"
        }
      ],
      "stateMutability": "view",
      "type": "function",
      "constant": true
    }
  ],
  "bytecode": "0x608060405234801561001057600080fd5b5033600160006101000a81548173ffffffffffffffffffffffffffffffffffffffff021916908373ffffffffffffffffffffffffffffffffffffffff160217905550611c39806100616000396000f3fe60806040523480156200001157600080fd5b5060043610620000525760003560e01c806308b7619b14620000575780634d9b373514620000775780636ecc75af14620000995780639a068bd614620000bb575b600080fd5b6200007560048036038101906200006f919062000330565b620000f1565b005b6200008162000197565b604051620000909190620004b7565b60405180910390f35b620000a362000227565b604051620000b291906200049a565b60405180910390f35b620000d96004803603810190620000d3919062000381565b6200024d565b604051620000e891906200049a565b60405180910390f35b6000813360405162000103906200028d565b62000110929190620004db565b604051809103906000f0801580156200012d573d6000803e3d6000fd5b5090506000819080600181540180825580915050600190039060005260206000200160009091909190916101000a81548173ffffffffffffffffffffffffffffffffffffffff021916908373ffffffffffffffffffffffffffffffffffffffff1602179055505050565b606060008054806020026020016040519081016040528092919081815260200182805480156200021d57602002820191906000526020600020905b8160009054906101000a900473ffffffffffffffffffffffffffffffffffffffff1673ffffffffffffffffffffffffffffffffffffffff1681526020019060010190808311620001d2575b5050505050905090565b600160009054906101000a900473ffffffffffffffffffffffffffffffffffffffff1681565b600081815481106200025e57600080fd5b906000526020600020016000915054906101000a900473ffffffffffffffffffffffffffffffffffffffff1681565b61151980620006eb83390190565b6000620002b2620002ac8462000538565b6200050f565b905082815260208101848484011115620002d157620002d0620006b0565b5b620002de84828562000601565b509392505050565b600082601f830112620002fe57620002fd620006ab565b5b8135620003108482602086016200029b565b91505092915050565b6000813590506200032a81620006d0565b92915050565b600060208284031215620003495762000348620006ba565b5b600082013567ffffffffffffffff8111156200036a5762000369620006b5565b5b6200037884828501620002e6565b91505092915050565b6000602082840312156200039a5762000399620006ba565b5b6000620003aa8482850162000319565b91505092915050565b6000620003c18383620003cd565b60208301905092915050565b620003d881620005c3565b82525050565b620003e981620005c3565b82525050565b6000620003fc826200057e565b620004088185620005a1565b935062000415836200056e565b8060005b838110156200044c578151620004308882620003b3565b97506200043d8362000594565b92505060018101905062000419565b5085935050505092915050565b6000620004668262000589565b620004728185620005b2565b93506200048481856020860162000610565b6200048f81620006bf565b840191505092915050565b6000602082019050620004b16000830184620003de565b92915050565b60006020820190508181036000830152620004d38184620003ef565b905092915050565b60006040820190508181036000830152620004f7818562000459565b9050620005086020830184620003de565b9392505050565b60006200051b6200052e565b905062000529828262000646565b919050565b6000604051905090565b600067ffffffffffffffff8211156200055657620005556200067c565b5b6200056182620006bf565b9050602081019050919050565b6000819050602082019050919050565b600081519050919050565b600081519050919050565b6000602082019050919050565b600082825260208201905092915050565b600082825260208201905092915050565b6000620005d082620005d7565b9050919050565b600073ffffffffffffffffffffffffffffffffffffffff82169050919050565b6000819050919050565b82818337600083830152505050565b60005b838110156200063057808201518184015260208101905062000613565b8381111562000640576000848401525b50505050565b6200065182620006bf565b810181811067ffffffffffffffff821117156200067357620006726200067c565b5b80604052505050565b7f4e487b7100000000000000000000000000000000000000000000000000000000600052604160045260246000fd5b600080fd5b600080fd5b600080fd5b600080fd5b6000601f19601f8301169050919050565b620006db81620005f7565b8114620006e757600080fd5b5056fe60806040523480156200001157600080fd5b5060405162001519380380620015198339818101604052810190620000379190620001de565b80600360006101000a81548173ffffffffffffffffffffffffffffffffffffffff021916908373ffffffffffffffffffffffffffffffffffffffff16021790555081600090805190602001906200009092919062000099565b50505062000416565b828054620000a7906200030d565b90600052602060002090601f016020900481019282620000cb576000855562000117565b82601f10620000e657805160ff191683800117855562000117565b8280016001018555821562000117579182015b8281111562000116578251825591602001919060010190620000f9565b5b5090506200012691906200012a565b5090565b5b80821115620001455760008160009055506001016200012b565b5090565b6000620001606200015a846200026d565b62000244565b9050828152602081018484840111156200017f576200017e620003dc565b5b6200018c848285620002d7565b509392505050565b600081519050620001a581620003fc565b92915050565b600082601f830112620001c357620001c2620003d7565b5b8151620001d584826020860162000149565b91505092915050565b60008060408385031215620001f857620001f7620003e6565b5b600083015167ffffffffffffffff811115620002195762000218620003e1565b5b6200022785828601620001ab565b92505060206200023a8582860162000194565b9150509250929050565b60006200025062000263565b90506200025e828262000343565b919050565b6000604051905090565b600067ffffffffffffffff8211156200028b576200028a620003a8565b5b6200029682620003eb565b9050602081019050919050565b6000620002b082620002b7565b9050919050565b600073ffffffffffffffffffffffffffffffffffffffff82169050919050565b60005b83811015620002f7578082015181840152602081019050620002da565b8381111562000307576000848401525b50505050565b600060028204905060018216806200032657607f821691505b602082108114156200033d576200033c62000379565b5b50919050565b6200034e82620003eb565b810181811067ffffffffffffffff8211171562000370576200036f620003a8565b5b80604052505050565b7f4e487b7100000000000000000000000000000000000000000000000000000000600052602260045260246000fd5b7f4e487b7100000000000000000000000000000000000000000000000000000000600052604160045260246000fd5b600080fd5b600080fd5b600080fd5b600080fd5b6000601f19601f8301169050919050565b6200040781620002a3565b81146200041357600080fd5b50565b6110f380620004266000396000f3fe6080604052600436106100915760003560e01c80638a9cfd55116100595780638a9cfd55146101875780639fb42b1f146101b0578063d24f8cdd146101db578063d7bb99ba14610218578063d7d1bbdb1461022257610091565b80633410452a146100965780634051ddac146100c1578063481c6a75146100f057806372e871681461011b57806381d12c5814610146575b600080fd5b3480156100a257600080fd5b506100ab61024b565b6040516100b89190610d16565b60405180910390f35b3480156100cd57600080fd5b506100d6610255565b6040516100e7959493929190610c5c565b60405180910390f35b3480156100fc57600080fd5b50610105610326565b6040516101129190610bcc565b60405180910390f35b34801561012757600080fd5b5061013061034c565b60405161013d9190610d16565b60405180910390f35b34801561015257600080fd5b5061016d60048036038101906101689190610ac1565b610352565b60405161017e959493929190610c02565b60405180910390f35b34801561019357600080fd5b506101ae60048036038101906101a99190610a52565b61043d565b005b3480156101bc57600080fd5b506101c56105d3565b6040516101d29190610d16565b60405180910390f35b3480156101e757600080fd5b5061020260048036038101906101fd9190610a25565b6105d9565b60405161020f9190610be7565b60405180910390f35b6102206105f9565b005b34801561022e57600080fd5b5061024960048036038101906102449190610ac1565b6106ae565b005b6000600154905090565b6060600080600080600047600154600554600360009054906101000a900473ffffffffffffffffffffffffffffffffffffffff1684805461029590610e70565b80601f01602080910402602001604051908101604052809291908181526020018280546102c190610e70565b801561030e5780601f106102e35761010080835404028352916020019161030e565b820191906000526020600020905b8154815290600101906020018083116102f157829003601f168201915b50505050509450945094509450945094509091929394565b600360009054906101000a900473ffffffffffffffffffffffffffffffffffffffff1681565b60055481565b600260205280600052604060002060009150905080600001805461037590610e70565b80601f01602080910402602001604051908101604052809291908181526020018280546103a190610e70565b80156103ee5780601f106103c3576101008083540402835291602001916103ee565b820191906000526020600020905b8154815290600101906020018083116103d157829003601f168201915b5050505050908060010154908060020160009054906101000a900473ffffffffffffffffffffffffffffffffffffffff16908060020160149054906101000a900460ff16908060030154905085565b600360009054906101000a900473ffffffffffffffffffffffffffffffffffffffff1673ffffffffffffffffffffffffffffffffffffffff163373ffffffffffffffffffffffffffffffffffffffff16146104cd576040517f08c379a00000000000000000000000000000000000000000000000000000000081526004016104c490610cd6565b60405180910390fd5b47821115610510576040517f08c379a000000000000000000000000000000000000000000000000000000000815260040161050790610cb6565b60405180910390fd5b60006002600060015481526020019081526020016000209050838160000190805190602001906105419291906108d3565b50828160010181905550818160020160006101000a81548173ffffffffffffffffffffffffffffffffffffffff021916908373ffffffffffffffffffffffffffffffffffffffff16021790555060008160020160146101000a81548160ff02191690831515021790555060008160030181905550600160008154809291906105c890610ed3565b919050555050505050565b60015481565b60046020528060005260406000206000915054906101000a900460ff1681565b6000341161063c576040517f08c379a000000000000000000000000000000000000000000000000000000000815260040161063390610cf6565b60405180910390fd5b6001600460003373ffffffffffffffffffffffffffffffffffffffff1673ffffffffffffffffffffffffffffffffffffffff16815260200190815260200160002060006101000a81548160ff021916908315150217905550600560008154809291906106a790610ed3565b9190505550565b6000600260008381526020019081526020016000209050600460003373ffffffffffffffffffffffffffffffffffffffff1673ffffffffffffffffffffffffffffffffffffffff16815260200190815260200160002060009054906101000a900460ff1661071b57600080fd5b8060040160003373ffffffffffffffffffffffffffffffffffffffff1673ffffffffffffffffffffffffffffffffffffffff16815260200190815260200160002060009054906101000a900460ff161561077457600080fd5b60018160040160003373ffffffffffffffffffffffffffffffffffffffff1673ffffffffffffffffffffffffffffffffffffffff16815260200190815260200160002060006101000a81548160ff0219169083151502179055508060030160008154809291906107e390610ed3565b91905055506107f1826107f5565b5050565b6000600260008381526020019081526020016000209050600260055461081b9190610da3565b81600301541015801561083d57508060020160149054906101000a900460ff16155b156108cf578060020160009054906101000a900473ffffffffffffffffffffffffffffffffffffffff1673ffffffffffffffffffffffffffffffffffffffff166108fc82600101549081150290604051600060405180830381858888f193505050501580156108b0573d6000803e3d6000fd5b5060018160020160146101000a81548160ff0219169083151502179055505b5050565b8280546108df90610e70565b90600052602060002090601f0160209004810192826109015760008555610948565b82601f1061091a57805160ff1916838001178555610948565b82800160010185558215610948579182015b8281111561094757825182559160200191906001019061092c565b5b5090506109559190610959565b5090565b5b8082111561097257600081600090555060010161095a565b5090565b600061098961098484610d56565b610d31565b9050828152602081018484840111156109a5576109a4610fdd565b5b6109b0848285610e2e565b509392505050565b6000813590506109c781611078565b92915050565b6000813590506109dc8161108f565b92915050565b600082601f8301126109f7576109f6610fd8565b5b8135610a07848260208601610976565b91505092915050565b600081359050610a1f816110a6565b92915050565b600060208284031215610a3b57610a3a610fe7565b5b6000610a49848285016109b8565b91505092915050565b600080600060608486031215610a6b57610a6a610fe7565b5b600084013567ffffffffffffffff811115610a8957610a88610fe2565b5b610a95868287016109e2565b9350506020610aa686828701610a10565b9250506040610ab7868287016109cd565b9150509250925092565b600060208284031215610ad757610ad6610fe7565b5b6000610ae584828501610a10565b91505092915050565b610af781610de6565b82525050565b610b0681610dd4565b82525050565b610b1581610df8565b82525050565b6000610b2682610d87565b610b308185610d92565b9350610b40818560208601610e3d565b610b4981610fec565b840191505092915050565b6000610b61601683610d92565b9150610b6c82610ffd565b602082019050919050565b6000610b84601e83610d92565b9150610b8f82611026565b602082019050919050565b6000610ba7600e83610d92565b9150610bb28261104f565b602082019050919050565b610bc681610e24565b82525050565b6000602082019050610be16000830184610afd565b92915050565b6000602082019050610bfc6000830184610b0c565b92915050565b600060a0820190508181036000830152610c1c8188610b1b565b9050610c2b6020830187610bbd565b610c386040830186610aee565b610c456060830185610b0c565b610c526080830184610bbd565b9695505050505050565b600060a0820190508181036000830152610c768188610b1b565b9050610c856020830187610bbd565b610c926040830186610bbd565b610c9f6060830185610bbd565b610cac6080830184610afd565b9695505050505050565b60006020820190508181036000830152610ccf81610b54565b9050919050565b60006020820190508181036000830152610cef81610b77565b9050919050565b60006020820190508181036000830152610d0f81610b9a565b9050919050565b6000602082019050610d2b6000830184610bbd565b92915050565b6000610d3b610d4c565b9050610d478282610ea2565b919050565b6000604051905090565b600067ffffffffffffffff821115610d7157610d70610fa9565b5b610d7a82610fec565b9050602081019050919050565b600081519050919050565b600082825260208201905092915050565b6000610dae82610e24565b9150610db983610e24565b925082610dc957610dc8610f4b565b5b828204905092915050565b6000610ddf82610e04565b9050919050565b6000610df182610e04565b9050919050565b60008115159050919050565b600073ffffffffffffffffffffffffffffffffffffffff82169050919050565b6000819050919050565b82818337600083830152505050565b60005b83811015610e5b578082015181840152602081019050610e40565b83811115610e6a576000848401525b50505050565b60006002820490506001821680610e8857607f821691505b60208210811415610e9c57610e9b610f7a565b5b50919050565b610eab82610fec565b810181811067ffffffffffffffff82111715610eca57610ec9610fa9565b5b80604052505050565b6000610ede82610e24565b91507fffffffffffffffffffffffffffffffffffffffffffffffffffffffffffffffff821415610f1157610f10610f1c565b5b600182019050919050565b7f4e487b7100000000000000000000000000000000000000000000000000000000600052601160045260246000fd5b7f4e487b7100000000000000000000000000000000000000000000000000000000600052601260045260246000fd5b7f4e487b7100000000000000000000000000000000000000000000000000000000600052602260045260246000fd5b7f4e487b7100000000000000000000000000000000000000000000000000000000600052604160045260246000fd5b600080fd5b600080fd5b600080fd5b600080fd5b6000601f19601f8301169050919050565b7f4e6f7420656e6f756768206d6f6e6579206c6566742100000000000000000000600082015250565b7f4f6e6c79204f776e65722063616e206372656174652072657175657374210000600082015250565b7f4e6f2076616c75652073656e7421000000000000000000000000000000000000600082015250565b61108181610dd4565b811461108c57600080fd5b50565b61109881610de6565b81146110a357600080fd5b50565b6110af81610e24565b81146110ba57600080fd5b5056fea2646970667358221220f0082bb42d435a7bfac24eaed656b05a9707700eeeecf7c66800fd895811d9af64736f6c63430008070033a2646970667358221220fc43a077eb60a846a07bf6f82fbe4b89d0fb8738e7f8f6c765f745fd3a29a7d164736f6c63430008070033",
  "immutableReferences": {},
  "source": "pragma solidity >=0.7.0 <0.9.0;\n\nimport './Fund.sol';\n\ncontract FundFactory {\n    address[] public deployedFunds;\n\n    address public charityOwner;\n\n    constructor()  {\n        charityOwner = msg.sender;\n    }\n\n    function raiseFund(string memory name) public {\n        Fund newFund = new Fund(name, msg.sender);\n        deployedFunds.push(address(newFund));\n    }\n\n    function getFunds() public view returns (address[] memory) {\n        return deployedFunds;\n    }\n}",
  "sourcePath": "/Users/fanglimin/blockchain/fund/contracts/FundFactory.sol",
  "compiler": {
    "name": "solc",
    "version": "0.8.7+commit.e28d00a7.Emscripten.clang"
  },
  "schemaVersion": "3.4.2",
  "updatedAt": "2021-11-12T11:08:38.726Z",
  "networkType": "ethereum",
  "devdoc": {
    "kind": "dev",
    "methods": {},
    "version": 1
  },
  "userdoc": {
    "kind": "user",
    "methods": {},
    "version": 1
  }
}