{
  "contractName": "FundFactory",
  "abi": [
    {
      "inputs": [],
      "stateMutability": "nonpayable",
      "type": "constructor"
    },
    {
      "inputs": [],
      "name": "charityOwner",
      "outputs": [
        {
          "internalType": "address",
          "name": "",
          "type": "address"
        }
      ],
      "stateMutability": "view",
      "type": "function",
      "constant": true
    },
    {
      "inputs": [
        {
          "internalType": "uint256",
          "name": "",
          "type": "uint256"
        }
      ],
      "name": "deployedFunds",
      "outputs": [
        {
          "internalType": "address",
          "name": "",
          "type": "address"
        }
      ],
      "stateMutability": "view",
      "type": "function",
      "constant": true
    },
    {
      "inputs": [
        {
          "internalType": "string",
          "name": "name",
          "type": "string"
        }
      ],
      "name": "raiseFund",
      "outputs": [],
      "stateMutability": "nonpayable",
      "type": "function"
    },
    {
      "inputs": [],
      "name": "getFunds",
      "outputs": [
        {
          "internalType": "address[]",
          "name": "",
          "type": "address[]"
        }
      ],
      "stateMutability": "view",
      "type": "function",
      "constant": true
    }
  ],
  "bytecode": "0x608060405234801561001057600080fd5b5033600160006101000a81548173ffffffffffffffffffffffffffffffffffffffff021916908373ffffffffffffffffffffffffffffffffffffffff160217905550611c8b806100616000396000f3fe60806040523480156200001157600080fd5b5060043610620000525760003560e01c806308b7619b14620000575780634d9b373514620000775780636ecc75af14620000995780639a068bd614620000bb575b600080fd5b6200007560048036038101906200006f919062000330565b620000f1565b005b6200008162000197565b604051620000909190620004b7565b60405180910390f35b620000a362000227565b604051620000b291906200049a565b60405180910390f35b620000d96004803603810190620000d3919062000381565b6200024d565b604051620000e891906200049a565b60405180910390f35b6000813360405162000103906200028d565b62000110929190620004db565b604051809103906000f0801580156200012d573d6000803e3d6000fd5b5090506000819080600181540180825580915050600190039060005260206000200160009091909190916101000a81548173ffffffffffffffffffffffffffffffffffffffff021916908373ffffffffffffffffffffffffffffffffffffffff1602179055505050565b606060008054806020026020016040519081016040528092919081815260200182805480156200021d57602002820191906000526020600020905b8160009054906101000a900473ffffffffffffffffffffffffffffffffffffffff1673ffffffffffffffffffffffffffffffffffffffff1681526020019060010190808311620001d2575b5050505050905090565b600160009054906101000a900473ffffffffffffffffffffffffffffffffffffffff1681565b600081815481106200025e57600080fd5b906000526020600020016000915054906101000a900473ffffffffffffffffffffffffffffffffffffffff1681565b61156b80620006eb83390190565b6000620002b2620002ac8462000538565b6200050f565b905082815260208101848484011115620002d157620002d0620006b0565b5b620002de84828562000601565b509392505050565b600082601f830112620002fe57620002fd620006ab565b5b8135620003108482602086016200029b565b91505092915050565b6000813590506200032a81620006d0565b92915050565b600060208284031215620003495762000348620006ba565b5b600082013567ffffffffffffffff8111156200036a5762000369620006b5565b5b6200037884828501620002e6565b91505092915050565b6000602082840312156200039a5762000399620006ba565b5b6000620003aa8482850162000319565b91505092915050565b6000620003c18383620003cd565b60208301905092915050565b620003d881620005c3565b82525050565b620003e981620005c3565b82525050565b6000620003fc826200057e565b620004088185620005a1565b935062000415836200056e565b8060005b838110156200044c578151620004308882620003b3565b97506200043d8362000594565b92505060018101905062000419565b5085935050505092915050565b6000620004668262000589565b620004728185620005b2565b93506200048481856020860162000610565b6200048f81620006bf565b840191505092915050565b6000602082019050620004b16000830184620003de565b92915050565b60006020820190508181036000830152620004d38184620003ef565b905092915050565b60006040820190508181036000830152620004f7818562000459565b9050620005086020830184620003de565b9392505050565b60006200051b6200052e565b905062000529828262000646565b919050565b6000604051905090565b600067ffffffffffffffff8211156200055657620005556200067c565b5b6200056182620006bf565b9050602081019050919050565b6000819050602082019050919050565b600081519050919050565b600081519050919050565b6000602082019050919050565b600082825260208201905092915050565b600082825260208201905092915050565b6000620005d082620005d7565b9050919050565b600073ffffffffffffffffffffffffffffffffffffffff82169050919050565b6000819050919050565b82818337600083830152505050565b60005b838110156200063057808201518184015260208101905062000613565b8381111562000640576000848401525b50505050565b6200065182620006bf565b810181811067ffffffffffffffff821117156200067357620006726200067c565b5b80604052505050565b7f4e487b7100000000000000000000000000000000000000000000000000000000600052604160045260246000fd5b600080fd5b600080fd5b600080fd5b600080fd5b6000601f19601f8301169050919050565b620006db81620005f7565b8114620006e757600080fd5b5056fe60806040523480156200001157600080fd5b506040516200156b3803806200156b8339818101604052810190620000379190620001de565b80600360006101000a81548173ffffffffffffffffffffffffffffffffffffffff021916908373ffffffffffffffffffffffffffffffffffffffff16021790555081600090805190602001906200009092919062000099565b50505062000416565b828054620000a7906200030d565b90600052602060002090601f016020900481019282620000cb576000855562000117565b82601f10620000e657805160ff191683800117855562000117565b8280016001018555821562000117579182015b8281111562000116578251825591602001919060010190620000f9565b5b5090506200012691906200012a565b5090565b5b80821115620001455760008160009055506001016200012b565b5090565b6000620001606200015a846200026d565b62000244565b9050828152602081018484840111156200017f576200017e620003dc565b5b6200018c848285620002d7565b509392505050565b600081519050620001a581620003fc565b92915050565b600082601f830112620001c357620001c2620003d7565b5b8151620001d584826020860162000149565b91505092915050565b60008060408385031215620001f857620001f7620003e6565b5b600083015167ffffffffffffffff811115620002195762000218620003e1565b5b6200022785828601620001ab565b92505060206200023a8582860162000194565b9150509250929050565b60006200025062000263565b90506200025e828262000343565b919050565b6000604051905090565b600067ffffffffffffffff8211156200028b576200028a620003a8565b5b6200029682620003eb565b9050602081019050919050565b6000620002b082620002b7565b9050919050565b600073ffffffffffffffffffffffffffffffffffffffff82169050919050565b60005b83811015620002f7578082015181840152602081019050620002da565b8381111562000307576000848401525b50505050565b600060028204905060018216806200032657607f821691505b602082108114156200033d576200033c62000379565b5b50919050565b6200034e82620003eb565b810181811067ffffffffffffffff8211171562000370576200036f620003a8565b5b80604052505050565b7f4e487b7100000000000000000000000000000000000000000000000000000000600052602260045260246000fd5b7f4e487b7100000000000000000000000000000000000000000000000000000000600052604160045260246000fd5b600080fd5b600080fd5b600080fd5b600080fd5b6000601f19601f8301169050919050565b6200040781620002a3565b81146200041357600080fd5b50565b61114580620004266000396000f3fe6080604052600436106100915760003560e01c80638a9cfd55116100595780638a9cfd55146101875780639fb42b1f146101b0578063d24f8cdd146101db578063d7bb99ba14610218578063d7d1bbdb1461022257610091565b80633410452a146100965780634051ddac146100c1578063481c6a75146100f057806372e871681461011b57806381d12c5814610146575b600080fd5b3480156100a257600080fd5b506100ab61024b565b6040516100b89190610d68565b60405180910390f35b3480156100cd57600080fd5b506100d6610255565b6040516100e7959493929190610cae565b60405180910390f35b3480156100fc57600080fd5b50610105610326565b6040516101129190610c1e565b60405180910390f35b34801561012757600080fd5b5061013061034c565b60405161013d9190610d68565b60405180910390f35b34801561015257600080fd5b5061016d60048036038101906101689190610b13565b610352565b60405161017e959493929190610c54565b60405180910390f35b34801561019357600080fd5b506101ae60048036038101906101a99190610aa4565b61043d565b005b3480156101bc57600080fd5b506101c56105d3565b6040516101d29190610d68565b60405180910390f35b3480156101e757600080fd5b5061020260048036038101906101fd9190610a77565b6105d9565b60405161020f9190610c39565b60405180910390f35b6102206105f9565b005b34801561022e57600080fd5b5061024960048036038101906102449190610b13565b610700565b005b6000600154905090565b6060600080600080600047600154600554600360009054906101000a900473ffffffffffffffffffffffffffffffffffffffff1684805461029590610ec2565b80601f01602080910402602001604051908101604052809291908181526020018280546102c190610ec2565b801561030e5780601f106102e35761010080835404028352916020019161030e565b820191906000526020600020905b8154815290600101906020018083116102f157829003601f168201915b50505050509450945094509450945094509091929394565b600360009054906101000a900473ffffffffffffffffffffffffffffffffffffffff1681565b60055481565b600260205280600052604060002060009150905080600001805461037590610ec2565b80601f01602080910402602001604051908101604052809291908181526020018280546103a190610ec2565b80156103ee5780601f106103c3576101008083540402835291602001916103ee565b820191906000526020600020905b8154815290600101906020018083116103d157829003601f168201915b5050505050908060010154908060020160009054906101000a900473ffffffffffffffffffffffffffffffffffffffff16908060020160149054906101000a900460ff16908060030154905085565b600360009054906101000a900473ffffffffffffffffffffffffffffffffffffffff1673ffffffffffffffffffffffffffffffffffffffff163373ffffffffffffffffffffffffffffffffffffffff16146104cd576040517f08c379a00000000000000000000000000000000000000000000000000000000081526004016104c490610d28565b60405180910390fd5b47821115610510576040517f08c379a000000000000000000000000000000000000000000000000000000000815260040161050790610d08565b60405180910390fd5b6000600260006001548152602001908152602001600020905083816000019080519060200190610541929190610925565b50828160010181905550818160020160006101000a81548173ffffffffffffffffffffffffffffffffffffffff021916908373ffffffffffffffffffffffffffffffffffffffff16021790555060008160020160146101000a81548160ff02191690831515021790555060008160030181905550600160008154809291906105c890610f25565b919050555050505050565b60015481565b60046020528060005260406000206000915054906101000a900460ff1681565b6000341161063c576040517f08c379a000000000000000000000000000000000000000000000000000000000815260040161063390610d48565b60405180910390fd5b600460003373ffffffffffffffffffffffffffffffffffffffff1673ffffffffffffffffffffffffffffffffffffffff16815260200190815260200160002060009054906101000a900460ff166106fe576001600460003373ffffffffffffffffffffffffffffffffffffffff1673ffffffffffffffffffffffffffffffffffffffff16815260200190815260200160002060006101000a81548160ff021916908315150217905550600560008154809291906106f890610f25565b91905055505b565b6000600260008381526020019081526020016000209050600460003373ffffffffffffffffffffffffffffffffffffffff1673ffffffffffffffffffffffffffffffffffffffff16815260200190815260200160002060009054906101000a900460ff1661076d57600080fd5b8060040160003373ffffffffffffffffffffffffffffffffffffffff1673ffffffffffffffffffffffffffffffffffffffff16815260200190815260200160002060009054906101000a900460ff16156107c657600080fd5b60018160040160003373ffffffffffffffffffffffffffffffffffffffff1673ffffffffffffffffffffffffffffffffffffffff16815260200190815260200160002060006101000a81548160ff02191690831515021790555080600301600081548092919061083590610f25565b919050555061084382610847565b5050565b6000600260008381526020019081526020016000209050600260055461086d9190610df5565b81600301541015801561088f57508060020160149054906101000a900460ff16155b15610921578060020160009054906101000a900473ffffffffffffffffffffffffffffffffffffffff1673ffffffffffffffffffffffffffffffffffffffff166108fc82600101549081150290604051600060405180830381858888f19350505050158015610902573d6000803e3d6000fd5b5060018160020160146101000a81548160ff0219169083151502179055505b5050565b82805461093190610ec2565b90600052602060002090601f016020900481019282610953576000855561099a565b82601f1061096c57805160ff191683800117855561099a565b8280016001018555821561099a579182015b8281111561099957825182559160200191906001019061097e565b5b5090506109a791906109ab565b5090565b5b808211156109c45760008160009055506001016109ac565b5090565b60006109db6109d684610da8565b610d83565b9050828152602081018484840111156109f7576109f661102f565b5b610a02848285610e80565b509392505050565b600081359050610a19816110ca565b92915050565b600081359050610a2e816110e1565b92915050565b600082601f830112610a4957610a4861102a565b5b8135610a598482602086016109c8565b91505092915050565b600081359050610a71816110f8565b92915050565b600060208284031215610a8d57610a8c611039565b5b6000610a9b84828501610a0a565b91505092915050565b600080600060608486031215610abd57610abc611039565b5b600084013567ffffffffffffffff811115610adb57610ada611034565b5b610ae786828701610a34565b9350506020610af886828701610a62565b9250506040610b0986828701610a1f565b9150509250925092565b600060208284031215610b2957610b28611039565b5b6000610b3784828501610a62565b91505092915050565b610b4981610e38565b82525050565b610b5881610e26565b82525050565b610b6781610e4a565b82525050565b6000610b7882610dd9565b610b828185610de4565b9350610b92818560208601610e8f565b610b9b8161103e565b840191505092915050565b6000610bb3601683610de4565b9150610bbe8261104f565b602082019050919050565b6000610bd6601e83610de4565b9150610be182611078565b602082019050919050565b6000610bf9600e83610de4565b9150610c04826110a1565b602082019050919050565b610c1881610e76565b82525050565b6000602082019050610c336000830184610b4f565b92915050565b6000602082019050610c4e6000830184610b5e565b92915050565b600060a0820190508181036000830152610c6e8188610b6d565b9050610c7d6020830187610c0f565b610c8a6040830186610b40565b610c976060830185610b5e565b610ca46080830184610c0f565b9695505050505050565b600060a0820190508181036000830152610cc88188610b6d565b9050610cd76020830187610c0f565b610ce46040830186610c0f565b610cf16060830185610c0f565b610cfe6080830184610b4f565b9695505050505050565b60006020820190508181036000830152610d2181610ba6565b9050919050565b60006020820190508181036000830152610d4181610bc9565b9050919050565b60006020820190508181036000830152610d6181610bec565b9050919050565b6000602082019050610d7d6000830184610c0f565b92915050565b6000610d8d610d9e565b9050610d998282610ef4565b919050565b6000604051905090565b600067ffffffffffffffff821115610dc357610dc2610ffb565b5b610dcc8261103e565b9050602081019050919050565b600081519050919050565b600082825260208201905092915050565b6000610e0082610e76565b9150610e0b83610e76565b925082610e1b57610e1a610f9d565b5b828204905092915050565b6000610e3182610e56565b9050919050565b6000610e4382610e56565b9050919050565b60008115159050919050565b600073ffffffffffffffffffffffffffffffffffffffff82169050919050565b6000819050919050565b82818337600083830152505050565b60005b83811015610ead578082015181840152602081019050610e92565b83811115610ebc576000848401525b50505050565b60006002820490506001821680610eda57607f821691505b60208210811415610eee57610eed610fcc565b5b50919050565b610efd8261103e565b810181811067ffffffffffffffff82111715610f1c57610f1b610ffb565b5b80604052505050565b6000610f3082610e76565b91507fffffffffffffffffffffffffffffffffffffffffffffffffffffffffffffffff821415610f6357610f62610f6e565b5b600182019050919050565b7f4e487b7100000000000000000000000000000000000000000000000000000000600052601160045260246000fd5b7f4e487b7100000000000000000000000000000000000000000000000000000000600052601260045260246000fd5b7f4e487b7100000000000000000000000000000000000000000000000000000000600052602260045260246000fd5b7f4e487b7100000000000000000000000000000000000000000000000000000000600052604160045260246000fd5b600080fd5b600080fd5b600080fd5b600080fd5b6000601f19601f8301169050919050565b7f4e6f7420656e6f756768206d6f6e6579206c6566742100000000000000000000600082015250565b7f4f6e6c79204f776e65722063616e206372656174652072657175657374210000600082015250565b7f4e6f2076616c75652073656e7421000000000000000000000000000000000000600082015250565b6110d381610e26565b81146110de57600080fd5b50565b6110ea81610e38565b81146110f557600080fd5b50565b61110181610e76565b811461110c57600080fd5b5056fea2646970667358221220c65cea39746443cf948451712277a941ab187a3cbbe1a39330acf9ba3bc1c16864736f6c63430008070033a264697066735822122081025471da352c545cd8e2b2b8eea87581a03b2cee85847b2a6aafc5f40a521d64736f6c63430008070033",
  "immutableReferences": {},
  "source": "pragma solidity >=0.7.0 <0.9.0;\n\nimport './Fund.sol';\n\ncontract FundFactory {\n    address[] public deployedFunds;\n\n    address public charityOwner;\n\n    constructor()  {\n        charityOwner = msg.sender;\n    }\n\n    function raiseFund(string memory name) public {\n        Fund newFund = new Fund(name, msg.sender);\n        deployedFunds.push(address(newFund));\n    }\n\n    function getFunds() public view returns (address[] memory) {\n        return deployedFunds;\n    }\n}",
  "sourcePath": "/Users/fanglimin/blockchain/fund/contracts/FundFactory.sol",
  "compiler": {
    "name": "solc",
    "version": "0.8.7+commit.e28d00a7.Emscripten.clang"
  },
  "schemaVersion": "3.4.2",
  "updatedAt": "2021-11-21T05:29:11.758Z",
  "networkType": "ethereum",
  "devdoc": {
    "kind": "dev",
    "methods": {},
    "version": 1
  },
  "userdoc": {
    "kind": "user",
    "methods": {},
    "version": 1
  }
}